{
  "contractName": "SimpleVoting",
  "abi": [
    {
      "constant": false,
      "inputs": [
        {
          "name": "candidate",
          "type": "bytes32"
        }
      ],
      "name": "totalVotesFor",
      "outputs": [
        {
          "name": "",
          "type": "uint8"
        }
      ],
      "payable": false,
      "type": "function"
    },
    {
      "constant": false,
      "inputs": [
        {
          "name": "candidate",
          "type": "bytes32"
        }
      ],
      "name": "validCandidate",
      "outputs": [
        {
          "name": "",
          "type": "bool"
        }
      ],
      "payable": false,
      "type": "function"
    },
    {
      "constant": true,
      "inputs": [
        {
          "name": "",
          "type": "bytes32"
        }
      ],
      "name": "votesReceived",
      "outputs": [
        {
          "name": "",
          "type": "uint8"
        }
      ],
      "payable": false,
      "type": "function"
    },
    {
      "constant": false,
      "inputs": [
        {
          "name": "candidateNames",
          "type": "bytes32[]"
        }
      ],
      "name": "Voting",
      "outputs": [],
      "payable": false,
      "type": "function"
    },
    {
      "constant": true,
      "inputs": [
        {
          "name": "",
          "type": "uint256"
        }
      ],
      "name": "candidateList",
      "outputs": [
        {
          "name": "",
          "type": "bytes32"
        }
      ],
      "payable": false,
      "type": "function"
    },
    {
      "constant": false,
      "inputs": [
        {
          "name": "candidate",
          "type": "bytes32"
        }
      ],
      "name": "voteForCandidate",
      "outputs": [],
      "payable": false,
      "type": "function"
    },
    {
      "anonymous": false,
      "inputs": [
        {
          "indexed": true,
          "name": "votingId",
          "type": "uint256"
        }
      ],
      "name": "votingEvent",
      "type": "event"
    }
  ],
  "bytecode": "0x6060604052341561000f57600080fd5b5b6103398061001f6000396000f300606060405236156100755763ffffffff7c01000000000000000000000000000000000000000000000000000000006000350416632f265cf7811461007a578063392e6678146100a65780637021939f146100d05780637e1cd79c146100fc578063b13c744b1461014d578063cc9ab26714610175575b600080fd5b341561008557600080fd5b61009060043561018d565b60405160ff909116815260200160405180910390f35b34156100b157600080fd5b6100bc6004356101a5565b604051901515815260200160405180910390f35b34156100db57600080fd5b6100906004356101f7565b60405160ff909116815260200160405180910390f35b341561010757600080fd5b61014b600460248135818101908301358060208181020160405190810160405280939291908181526020018383602002808284375094965061020c95505050505050565b005b341561015857600080fd5b610163600435610224565b60405190815260200160405180910390f35b341561018057600080fd5b61014b600435610247565b005b60008181526020819052604090205460ff165b919050565b6000805b6001548110156101ec5760018054849190839081106101c457fe5b906000526020600020900160005b505414156101e357600191506101f1565b5b6001016101a9565b600091505b50919050565b60006020819052908152604090205460ff1681565b600181805161021f92916020019061029e565b505b50565b600180548290811061023257fe5b906000526020600020900160005b5054905081565b60008181526020819052604090819020805460ff198116600160ff928316018216179182905516907f3474d7a80d734f2c159cbc95fd43cc116f75c5cc5b1b755e0fd91a0dbfc3c8c1905160405180910390a25b50565b8280548282559060005260206000209081019282156102db579160200282015b828111156102db57825182556020909201916001909101906102be565b5b506102e89291506102ec565b5090565b61030a91905b808211156102e857600081556001016102f2565b5090565b905600a165627a7a723058208064b74ad1aa19cdab304114a2166cf4eac235de61db80d2906f4b70f9e23b060029",
  "source": "pragma solidity ^0.4.10;\n\ncontract SimpleVoting {\n\n    mapping (bytes32 => uint8) public votesReceived;\n\n    bytes32[] public candidateList;\n\n    // Events\n   event votingEvent (\n     uint indexed votingId\n   );\n    \n    function Voting(bytes32[] candidateNames) {\n        candidateList = candidateNames;\n    }\n\n    function totalVotesFor(bytes32 candidate) returns (uint8) {\n       // if (validCandidate(candidate) == false ) throw;\n\n      //  require(validCandidate(candidate) == true);\n\n        return votesReceived[candidate];\n    }\n\n    function voteForCandidate(bytes32 candidate) {\n     //   if (validCandidate(candidate) == false ) throw;\n        // require(validCandidate(candidate) == true);\n\n         votesReceived[candidate] += 1;\n\n         votingEvent(votesReceived[candidate]);\n    }\n\n    function validCandidate(bytes32 candidate) returns (bool) {\n        for(uint i = 0; i < candidateList.length; i++) {\n            if(candidateList[i] == candidate) {\n                return true;\n            }\n        }\n        return false;\n    }\n\n}",
  "sourcePath": "/C/Project/Ethereum-master/contracts/SimpleVoting.sol",
  "schemaVersion": "1.0.0",
  "updatedAt": "2017-10-17T02:12:55.360Z"
}