{
  "contractName": "TokenVoting",
  "abi": [
    {
      "constant": true,
      "inputs": [
        {
          "name": "candidate",
          "type": "bytes32"
        }
      ],
      "name": "totalVotesFor",
      "outputs": [
        {
          "name": "",
          "type": "uint256"
        }
      ],
      "payable": false,
      "type": "function"
    },
    {
      "constant": true,
      "inputs": [],
      "name": "tokensSold",
      "outputs": [
        {
          "name": "",
          "type": "uint256"
        }
      ],
      "payable": false,
      "type": "function"
    },
    {
      "constant": true,
      "inputs": [
        {
          "name": "user",
          "type": "address"
        }
      ],
      "name": "voterDetails",
      "outputs": [
        {
          "name": "",
          "type": "uint256"
        },
        {
          "name": "",
          "type": "uint256[]"
        }
      ],
      "payable": false,
      "type": "function"
    },
    {
      "constant": false,
      "inputs": [
        {
          "name": "candidate",
          "type": "bytes32"
        },
        {
          "name": "votesInTokens",
          "type": "uint256"
        }
      ],
      "name": "voteForCandidate",
      "outputs": [],
      "payable": false,
      "type": "function"
    },
    {
      "constant": true,
      "inputs": [
        {
          "name": "",
          "type": "bytes32"
        }
      ],
      "name": "votesReceived",
      "outputs": [
        {
          "name": "",
          "type": "uint256"
        }
      ],
      "payable": false,
      "type": "function"
    },
    {
      "constant": true,
      "inputs": [],
      "name": "totalTokens",
      "outputs": [
        {
          "name": "",
          "type": "uint256"
        }
      ],
      "payable": false,
      "type": "function"
    },
    {
      "constant": true,
      "inputs": [],
      "name": "tokenPrice",
      "outputs": [
        {
          "name": "",
          "type": "uint256"
        }
      ],
      "payable": false,
      "type": "function"
    },
    {
      "constant": true,
      "inputs": [],
      "name": "allCandidates",
      "outputs": [
        {
          "name": "",
          "type": "bytes32[]"
        }
      ],
      "payable": false,
      "type": "function"
    },
    {
      "constant": false,
      "inputs": [
        {
          "name": "account",
          "type": "address"
        }
      ],
      "name": "transferTo",
      "outputs": [],
      "payable": false,
      "type": "function"
    },
    {
      "constant": false,
      "inputs": [],
      "name": "buy",
      "outputs": [
        {
          "name": "",
          "type": "uint256"
        }
      ],
      "payable": true,
      "type": "function"
    },
    {
      "constant": true,
      "inputs": [
        {
          "name": "",
          "type": "uint256"
        }
      ],
      "name": "candidateList",
      "outputs": [
        {
          "name": "",
          "type": "bytes32"
        }
      ],
      "payable": false,
      "type": "function"
    },
    {
      "constant": true,
      "inputs": [
        {
          "name": "",
          "type": "address"
        }
      ],
      "name": "voterInfo",
      "outputs": [
        {
          "name": "voterAddress",
          "type": "address"
        },
        {
          "name": "tokensBought",
          "type": "uint256"
        }
      ],
      "payable": false,
      "type": "function"
    },
    {
      "constant": true,
      "inputs": [],
      "name": "balanceTokens",
      "outputs": [
        {
          "name": "",
          "type": "uint256"
        }
      ],
      "payable": false,
      "type": "function"
    },
    {
      "constant": true,
      "inputs": [
        {
          "name": "candidate",
          "type": "bytes32"
        }
      ],
      "name": "indexOfCandidate",
      "outputs": [
        {
          "name": "",
          "type": "uint256"
        }
      ],
      "payable": false,
      "type": "function"
    },
    {
      "inputs": [
        {
          "name": "tokens",
          "type": "uint256"
        },
        {
          "name": "pricePerToken",
          "type": "uint256"
        },
        {
          "name": "candidateNames",
          "type": "bytes32[]"
        }
      ],
      "payable": false,
      "type": "constructor"
    }
  ],
  "bytecode": "0x6060604052341561000f57600080fd5b60405161085038038061085083398101604052808051919060200180519190602001805190910190505b600281805161004c929160200190610065565b506003839055600483905560058290555b5050506100d4565b8280548282559060005260206000209081019282156100a2579160200282015b828111156100a25782518255602090920191600190910190610085565b5b506100af9291506100b3565b5090565b6100d191905b808211156100af57600081556001016100b9565b5090565b90565b61076d806100e36000396000f300606060405236156100cd5763ffffffff7c01000000000000000000000000000000000000000000000000000000006000350416632f265cf781146100d2578063518ab2a8146100fa5780635938750d1461011f5780636b2dc6b5146101995780637021939f146101b45780637e1c0c09146101dc5780637ff9b5961461020157806381c4071514610226578063a03fa7e31461028d578063a6f2ae3a146102ae578063b13c744b146102c8578063cdf58d35146102f0578063e4494a0f14610331578063ecd098b014610356575b600080fd5b34156100dd57600080fd5b6100e860043561037e565b60405190815260200160405180910390f35b341561010557600080fd5b6100e8610393565b60405190815260200160405180910390f35b341561012a57600080fd5b61013e600160a060020a036004351661039e565b60405182815260406020820181815290820183818151815260200191508051906020019060200280838360005b838110156101845780820151818401525b60200161016b565b50505050905001935050505060405180910390f35b34156101a457600080fd5b6101b260043560243561042c565b005b34156101bf57600080fd5b6100e860043561050c565b60405190815260200160405180910390f35b34156101e757600080fd5b6100e861051e565b60405190815260200160405180910390f35b341561020c57600080fd5b6100e8610524565b60405190815260200160405180910390f35b341561023157600080fd5b61023961052a565b60405160208082528190810183818151815260200191508051906020019060200280838360005b838110156102795780820151818401525b602001610260565b505050509050019250505060405180910390f35b341561029857600080fd5b6101b2600160a060020a036004351661058a565b005b6100e86105cb565b60405190815260200160405180910390f35b34156102d357600080fd5b6100e8600435610632565b60405190815260200160405180910390f35b34156102fb57600080fd5b61030f600160a060020a0360043516610655565b604051600160a060020a03909216825260208201526040908101905180910390f35b341561033c57600080fd5b6100e861067a565b60405190815260200160405180910390f35b341561036157600080fd5b6100e8600435610680565b60405190815260200160405180910390f35b6000818152600160205260409020545b919050565b600454600354035b90565b60006103a86106d2565b600160a060020a0383166000908152602081815260409182902060018101546002909101805491939092839291828202909101905190810160405280929190818152602001828054801561041b57602002820191906000526020600020905b815481526020019060010190808311610407575b50505050509050915091505b915091565b60008061043884610680565b600160a060020a03331660009081526020819052604090206002015490925015156104b3575060005b6002548110156104b357600160a060020a033316600090815260208190526040902060020180546001810161049683826106e4565b916000526020600020900160005b5060009055505b600101610461565b5b6000848152600160209081526040808320805487019055600160a060020a03331683529082905290206002018054849190849081106104ef57fe5b906000526020600020900160005b50805490910190555b50505050565b60016020526000908152604090205481565b60035481565b60055481565b6105326106d2565b600280548060200260200160405190810160405280929190818152602001828054801561057f57602002820191906000526020600020905b8154815260019091019060200180831161056a575b505050505090505b90565b80600160a060020a03166108fc30600160a060020a0316319081150290604051600060405180830381858888f1935050505015156105c757600080fd5b5b50565b600080600554348115156105db57fe5b600160a060020a0333166000818152602081905260409020805473ffffffffffffffffffffffffffffffffffffffff19169091178155600101805492909104918201905560048054829003905591508190505b5090565b600280548290811061064057fe5b906000526020600020900160005b5054905081565b60006020819052908152604090208054600190910154600160a060020a039091169082565b60045481565b6000805b6002548110156106c657600280548491908390811061069f57fe5b906000526020600020900160005b505414156106bd578091506106cc565b5b600101610684565b60001991505b50919050565b60206040519081016040526000815290565b81548183558181151161070857600083815260209020610708918101908301610720565b5b505050565b60206040519081016040526000815290565b61039b91905b8082111561062e5760008155600101610726565b5090565b905600a165627a7a723058206aec8d99c61bc8256d3f0b57e870ca43f57099c7bf08b12dd0a84315bf6043ec0029",
  "source": "pragma solidity ^0.4.10; //We have to specify what version of the compiler this code will use\n\ncontract TokenVoting {\n\n  // We use the struct datatype to store the voter information.\n  struct Voter {\n    address voterAddress; // The address of the voter\n    uint tokensBought;    // The total no. of tokens this voter owns\n    uint[] tokensUsedPerCandidate; // Array to keep track of votes per candidate.\n    /* We have an array of candidates initialized below.\n     Every time this voter votes with her tokens, the value at that\n     index is incremented. Example, if candidateList array declared\n     below has [\"Rama\", \"Nick\", \"Jose\"] and this\n     voter votes 10 tokens to Nick, the tokensUsedPerCandidate[1]\n     will be incremented by 10.\n     */\n  }\n\n  /* mapping is equivalent to an associate array or hash\n   The key of the mapping is candidate name stored as type bytes32 and value is\n   an unsigned integer which used to store the vote count\n   */\n\n  mapping (address => Voter) public voterInfo;\n\n  /* Solidity doesn't let you return an array of strings yet. We will use an array of bytes32\n   instead to store the list of candidates\n   */\n\n  mapping (bytes32 => uint) public votesReceived;\n\n  bytes32[] public candidateList;\n\n  uint public totalTokens; // Total no. of tokens available for this election\n  uint public balanceTokens; // Total no. of tokens still available for purchase\n  uint public tokenPrice; // Price per token\n\n  /* When the contract is deployed on the blockchain, we will initialize\n   the total number of tokens for sale, cost per token and all the candidates\n   */\n  function TokenVoting(uint tokens, uint pricePerToken, bytes32[] candidateNames) {\n    candidateList = candidateNames;\n    totalTokens = tokens;\n    balanceTokens = tokens;\n    tokenPrice = pricePerToken;\n  }\n\n  function totalVotesFor(bytes32 candidate) constant returns (uint) {\n    return votesReceived[candidate];\n  }\n\n  /* Instead of just taking the candidate name as an argument, we now also\n   require the no. of tokens this voter wants to vote for the candidate\n   */\n  function voteForCandidate(bytes32 candidate, uint votesInTokens) {\n    uint index = indexOfCandidate(candidate);\n    //if (index == uint(-1)) throw;\n\n    // msg.sender gives us the address of the account/voter who is trying\n    // to call this function\n    if (voterInfo[msg.sender].tokensUsedPerCandidate.length == 0) {\n      for(uint i = 0; i < candidateList.length; i++) {\n        voterInfo[msg.sender].tokensUsedPerCandidate.push(0);\n      }\n    }\n\n    // Make sure this voter has enough tokens to cast the vote\n  //  uint availableTokens = voterInfo[msg.sender].tokensBought - totalTokensUsed(voterInfo[msg.sender].tokensUsedPerCandidate);\n  //  if (availableTokens < votesInTokens) throw;\n\n    votesReceived[candidate] += votesInTokens;\n\n    // Store how many tokens were used for this candidate\n    voterInfo[msg.sender].tokensUsedPerCandidate[index] += votesInTokens;\n  }\n\n  // Return the sum of all the tokens used by this voter.\n  function totalTokensUsed(uint[] _tokensUsedPerCandidate) private constant returns (uint) {\n    uint totalUsedTokens = 0;\n    for(uint i = 0; i < _tokensUsedPerCandidate.length; i++) {\n      totalUsedTokens += _tokensUsedPerCandidate[i];\n    }\n    return totalUsedTokens;\n  }\n\n  function indexOfCandidate(bytes32 candidate) constant returns (uint) {\n    for(uint i = 0; i < candidateList.length; i++) {\n      if (candidateList[i] == candidate) {\n        return i;\n      }\n    }\n    return uint(-1);\n  }\n\n  /* This function is used to purchase the tokens. Note the keyword 'payable'\n   below. By just adding that one keyword to a function, your contract can\n   now accept Ether from anyone who calls this function. Accepting money can\n   not get any easier than this!\n   */\n\n  function buy() payable returns (uint) {\n    uint tokensToBuy = msg.value / tokenPrice;\n  //  if (tokensToBuy > balanceTokens) throw;\n    voterInfo[msg.sender].voterAddress = msg.sender;\n    voterInfo[msg.sender].tokensBought += tokensToBuy;\n    balanceTokens -= tokensToBuy;\n    return tokensToBuy;\n  }\n\n  function tokensSold() constant returns (uint) {\n    return totalTokens - balanceTokens;\n  }\n\n  function voterDetails(address user) constant returns (uint, uint[]) {\n    return (voterInfo[user].tokensBought, voterInfo[user].tokensUsedPerCandidate);\n  }\n\n  /* All the ether sent by voters who purchased the tokens is in this\n   contract's account. This method will be used to transfer out all those ethers\n   in to another account. *** The way this function is written currently, anyone can call\n   this method and transfer the balance in to their account. In reality, you should add\n   check to make sure only the owner of this contract can cash out.\n   */\n\n  function transferTo(address account) {\n    account.transfer(this.balance);\n  }\n\n  function allCandidates() constant returns (bytes32[]) {\n    return candidateList;\n  }\n\n}\n",
  "sourcePath": "/C/Project/Ethereum-master/contracts/TokenVoting.sol",
  "schemaVersion": "1.0.0",
  "updatedAt": "2017-10-17T02:12:55.383Z"
}