{
  "contractName": "ChainList",
  "abi": [
    {
      "constant": false,
      "inputs": [],
      "name": "kill",
      "outputs": [],
      "payable": false,
      "type": "function"
    },
    {
      "constant": true,
      "inputs": [],
      "name": "getSecretsForSale",
      "outputs": [
        {
          "name": "",
          "type": "uint256[]"
        }
      ],
      "payable": false,
      "type": "function"
    },
    {
      "constant": true,
      "inputs": [],
      "name": "getNumberOfSecrets",
      "outputs": [
        {
          "name": "",
          "type": "uint256"
        }
      ],
      "payable": false,
      "type": "function"
    },
    {
      "constant": false,
      "inputs": [
        {
          "name": "_id",
          "type": "uint256"
        }
      ],
      "name": "buySecret",
      "outputs": [],
      "payable": true,
      "type": "function"
    },
    {
      "constant": false,
      "inputs": [
        {
          "name": "_name",
          "type": "string"
        },
        {
          "name": "_description",
          "type": "string"
        },
        {
          "name": "_secret",
          "type": "string"
        },
        {
          "name": "_price",
          "type": "uint256"
        }
      ],
      "name": "sellSecret",
      "outputs": [],
      "payable": false,
      "type": "function"
    },
    {
      "constant": true,
      "inputs": [
        {
          "name": "",
          "type": "uint256"
        }
      ],
      "name": "secrets",
      "outputs": [
        {
          "name": "id",
          "type": "uint256"
        },
        {
          "name": "seller",
          "type": "address"
        },
        {
          "name": "buyer",
          "type": "address"
        },
        {
          "name": "name",
          "type": "string"
        },
        {
          "name": "description",
          "type": "string"
        },
        {
          "name": "secret",
          "type": "string"
        },
        {
          "name": "price",
          "type": "uint256"
        }
      ],
      "payable": false,
      "type": "function"
    },
    {
      "anonymous": false,
      "inputs": [
        {
          "indexed": true,
          "name": "_id",
          "type": "uint256"
        },
        {
          "indexed": true,
          "name": "_seller",
          "type": "address"
        },
        {
          "indexed": false,
          "name": "_name",
          "type": "string"
        },
        {
          "indexed": false,
          "name": "_price",
          "type": "uint256"
        }
      ],
      "name": "sellSecretEvent",
      "type": "event"
    },
    {
      "anonymous": false,
      "inputs": [
        {
          "indexed": true,
          "name": "_id",
          "type": "uint256"
        },
        {
          "indexed": true,
          "name": "_seller",
          "type": "address"
        },
        {
          "indexed": true,
          "name": "_buyer",
          "type": "address"
        },
        {
          "indexed": false,
          "name": "_name",
          "type": "string"
        },
        {
          "indexed": false,
          "name": "_price",
          "type": "uint256"
        }
      ],
      "name": "buySecretEvent",
      "type": "event"
    }
  ],
  "bytecode": "0x60606040525b60008054600160a060020a03191633600160a060020a03161790555b5b6109fc806100316000396000f300606060405236156100755763ffffffff7c010000000000000000000000000000000000000000000000000000000060003504166341c0e1b5811461007a57806348ae40241461008f57806389e79e0b146100f65780638b488fe91461011b578063cf69e3d314610128578063de9702a414610201575b600080fd5b341561008557600080fd5b61008d6103bf565b005b341561009a57600080fd5b6100a26103eb565b60405160208082528190810183818151815260200191508051906020019060200280838360005b838110156100e25780820151818401525b6020016100c9565b505050509050019250505060405180910390f35b341561010157600080fd5b61010961053a565b60405190815260200160405180910390f35b61008d600435610541565b005b341561013357600080fd5b61008d60046024813581810190830135806020601f8201819004810201604051908101604052818152929190602084018383808284378201915050505050509190803590602001908201803590602001908080601f01602080910402602001604051908101604052818152929190602084018383808284378201915050505050509190803590602001908201803590602001908080601f016020809104026020016040519081016040528181529291906020840183838082843750949650509335935061070092505050565b005b341561020c57600080fd5b6102176004356108db565b604051878152600160a060020a0387811660208301528616604082015260c0810182905260e06060820181815286546002600182161561010090810260001901909216049284018390529091608084019160a085019190850190899080156102c05780601f10610295576101008083540402835291602001916102c0565b820191906000526020600020905b8154815290600101906020018083116102a357829003601f168201915b50508481038352875460026000196101006001841615020190911604808252602090910190889080156103345780601f1061030957610100808354040283529160200191610334565b820191906000526020600020905b81548152906001019060200180831161031757829003601f168201915b50508481038252865460026000196101006001841615020190911604808252602090910190879080156103a85780601f1061037d576101008083540402835291602001916103a8565b820191906000526020600020905b81548152906001019060200180831161038b57829003601f168201915b50509a505050505050505050505060405180910390f35b60005433600160a060020a039081169116146103da57600080fd5b600054600160a060020a0316ff5b5b565b6103f361091e565b6103fb61091e565b60008061040661091e565b60006002546000141561043b5760006040518059106104225750595b908082528060200260200182016040525b509550610532565b60025460405180591061044b5750595b908082528060200260200182016040525b50945060009350600192505b60025483116104ca57600083815260016020526040902060020154600160a060020a031615156104be576000838152600160205260409020548585815181106104ad57fe5b602090810290910101526001909301925b5b600190920191610468565b836040518059106104d85750595b908082528060200260200182016040525b509150600090505b8381101561052e5784818151811061050557fe5b9060200190602002015182828151811061051b57fe5b602090810290910101525b6001016104f1565b8195505b505050505090565b6002545b90565b60008060025411151561055357600080fd5b60008211801561056557506002548211155b151561057057600080fd5b5060008181526001602052604090206002810154600160a060020a03161561059757600080fd5b600181015433600160a060020a03908116911614156105b557600080fd5b600681015434146105c557600080fd5b600281018054600160a060020a0333811673ffffffffffffffffffffffffffffffffffffffff19909216919091179091556001820154163480156108fc0290604051600060405180830381858888f19350505050151561062457600080fd5b600281015460018201546006830154600160a060020a03928316929091169084907f25055d618fe15eb39367f9ba3f61b0e8a04a8cea2c0762d19f433a64458f870390600386019060405160208101829052604080825283546002600019610100600184161502019091160490820181905281906060820190859080156106ec5780601f106106c1576101008083540402835291602001916106ec565b820191906000526020600020905b8154815290600101906020018083116106cf57829003601f168201915b5050935050505060405180910390a45b5050565b60028054600101905560e06040519081016040908152600254808352600160a060020a0333166020808501919091526000838501819052606085018990526080850188905260a0850187905260c08501869052918252600190522081518155602082015160018201805473ffffffffffffffffffffffffffffffffffffffff1916600160a060020a0392909216919091179055604082015160028201805473ffffffffffffffffffffffffffffffffffffffff1916600160a060020a03929092169190911790556060820151816003019080516107e1929160200190610930565b506080820151816004019080516107fc929160200190610930565b5060a082015181600501908051610817929160200190610930565b5060c0820151816006015590505033600160a060020a03166002547faf6d9e7ef8e7f3ea6b644a9b0bb788af245cfed7431e9cf24dce9f00313d326186846040518080602001838152602001828103825284818151815260200191508051906020019080838360005b838110156108995780820151818401525b602001610880565b50505050905090810190601f1680156108c65780820380516001836020036101000a031916815260200191505b50935050505060405180910390a35b50505050565b600160208190526000918252604090912080549181015460028201546006830154600160a060020a03928316939290911691600381019160048201916005019087565b60206040519081016040526000815290565b828054600181600116156101000203166002900490600052602060002090601f016020900481019282601f1061097157805160ff191683800117855561099e565b8280016001018555821561099e579182015b8281111561099e578251825591602001919060010190610983565b5b506109ab9291506109af565b5090565b61053e91905b808211156109ab57600081556001016109b5565b5090565b905600a165627a7a72305820d63752e502a0b8e16a99ce05cde37b44bd6862fddacb3d02cdbc63b831eeecac0029",
  "source": "pragma solidity ^0.4.11;\n\nimport \"./Owned.sol\";\n\ncontract ChainList is Owned {\n  // Custom types\n  struct Secret {\n    uint id;\n    address seller;\n    address buyer;\n    string name;\n    string description;\n    string secret;\n    uint256 price;\n  }\n\n  // State variables\n  mapping(uint => Secret) public secrets;\n  uint secretCounter;\n\n  // Events\n  event sellSecretEvent (\n    uint indexed _id,\n    address indexed _seller,\n    string _name,\n    uint256 _price\n  );\n  event buySecretEvent (\n    uint indexed _id,\n    address indexed _seller,\n    address indexed _buyer,\n    string _name,\n    uint256 _price\n  );\n\n  // sell an secret\n  function sellSecret(string _name, string _description,string _secret, uint256 _price) public {\n    // a new secret\n    secretCounter++;\n\n    // store this Secret\n    secrets[secretCounter] = Secret(\n         secretCounter,\n         msg.sender,\n         0x0,\n         _name,\n         _description,\n         _secret,\n         _price\n    );\n\n    // trigger the event\n    sellSecretEvent(secretCounter, msg.sender, _name, _price);\n  }\n\n  // fetch the number of secrets in the contract\n  function getNumberOfSecrets() public constant returns (uint) {\n    return secretCounter;\n  }\n\n  // fetch and returns all secret IDs available for sale\n  function getSecretsForSale() public constant returns (uint[]) {\n    // we check whether there is at least one secret\n    if(secretCounter == 0) {\n      return new uint[](0);\n    }\n\n    // prepare intermediary array\n    uint[] memory secretIds = new uint[](secretCounter);\n\n    uint numberOfSecretsForSale = 0;\n    // iterate over secrets\n    for (uint i = 1; i <= secretCounter; i++) {\n      // keep only the ID of secrets not sold yet\n      if (secrets[i].buyer == 0x0) {\n        secretIds[numberOfSecretsForSale] = secrets[i].id;\n        numberOfSecretsForSale++;\n      }\n    }\n\n    // copy the secretIds array into the smaller forSale array\n    uint[] memory forSale = new uint[](numberOfSecretsForSale);\n    for (uint j = 0; j < numberOfSecretsForSale; j++) {\n      forSale[j] = secretIds[j];\n    }\n    return (forSale);\n  }\n\n  // buy an secret\n  function buySecret(uint _id) payable public {\n    // we check whether there is at least one secret\n    require(secretCounter > 0);\n\n    // we check whether the secret exists\n    require(_id > 0 && _id <= secretCounter);\n\n    // we retrieve the secret\n    Secret storage secret = secrets[_id];\n\n    // we check whether the secret has not already been sold\n    require(secret.buyer == 0x0);\n\n    // we don't allow the seller to buy his/her own secret\n    require(secret.seller != msg.sender);\n\n    // we check whether the value sent corresponds to the secret price\n    require(secret.price == msg.value);\n\n    // keep buyer's information\n    secret.buyer = msg.sender;\n\n    // the buyer can buy the secret\n    secret.seller.transfer(msg.value);\n\n    // trigger the event\n    buySecretEvent(_id, secret.seller, secret.buyer, secret.name, secret.price);\n  }\n\n  // kill the smart contract\n  function kill() onlyOwner {\n    selfdestruct(owner);\n  }\n}\n",
  "sourcePath": "/C/Project/Ethereum-master/contracts/ChainList.sol",
  "schemaVersion": "1.0.0",
  "updatedAt": "2017-10-17T02:12:50.148Z"
}