{
  "contractName": "Property",
  "abi": [
    {
      "constant": false,
      "inputs": [
        {
          "name": "propertyId",
          "type": "uint256"
        }
      ],
      "name": "buy",
      "outputs": [
        {
          "name": "",
          "type": "uint256"
        }
      ],
      "payable": false,
      "type": "function"
    },
    {
      "constant": true,
      "inputs": [
        {
          "name": "",
          "type": "uint256"
        }
      ],
      "name": "buyers",
      "outputs": [
        {
          "name": "",
          "type": "address"
        }
      ],
      "payable": false,
      "type": "function"
    },
    {
      "constant": false,
      "inputs": [],
      "name": "getBuyers",
      "outputs": [
        {
          "name": "",
          "type": "address[16]"
        }
      ],
      "payable": false,
      "type": "function"
    },
    {
      "anonymous": false,
      "inputs": [
        {
          "indexed": true,
          "name": "propertyId",
          "type": "uint256"
        }
      ],
      "name": "BuyPropertyEvent",
      "type": "event"
    }
  ],
  "bytecode": "0x6060604052341561000f57600080fd5b5b6102898061001f6000396000f300606060405263ffffffff7c0100000000000000000000000000000000000000000000000000000000600035041663d96a094a8114610053578063f2aa82181461007b578063f64bfaba146100ba575b600080fd5b341561005e57600080fd5b610069600435610107565b60405190815260200160405180910390f35b341561008657600080fd5b6100916004356101a8565b60405173ffffffffffffffffffffffffffffffffffffffff909116815260200160405180910390f35b34156100c557600080fd5b6100cd6101dc565b604051808261020080838360005b838110156100f45780820151818401525b6020016100db565b5050505090500191505060405180910390f35b600080821015801561011a5750600f8211155b151561012557600080fd5b336000836010811061013357fe5b0160005b6101000a81548173ffffffffffffffffffffffffffffffffffffffff021916908373ffffffffffffffffffffffffffffffffffffffff160217905550817f51468d2533f63361dfb5e2e1528091e0a374152c4c5bc5ff93d14644c29baa5f60405160405180910390a250805b919050565b600081601081106101b557fe5b0160005b915054906101000a900473ffffffffffffffffffffffffffffffffffffffff1681565b6101e4610234565b600060106102006040519081016040529190610200830182845b815473ffffffffffffffffffffffffffffffffffffffff1681526001909101906020018083116101fe575b505050505090505b90565b6102006040519081016040526010815b60008152600019909101906020018161024457905050905600a165627a7a72305820c1d417489910ca6ab5a690dcc3b37ba70819f19a8ab62bccb44aaf4c5e138e360029",
  "source": "pragma solidity ^0.4.11;\r\n\r\ncontract  Property {\r\n   address[16] public buyers;\r\n\r\n   // Events\r\n   event BuyPropertyEvent (\r\n     uint indexed propertyId\r\n   );\r\n\r\n   function buy(uint propertyId) public returns (uint) {\r\n       require(propertyId >= 0 && propertyId <= 15);\r\n\r\n       buyers[propertyId] = msg.sender;\r\n\r\n       BuyPropertyEvent(propertyId);\r\n\r\n       return propertyId;\r\n   }\r\n\r\n   function getBuyers() public returns (address[16]) {\r\n       return buyers;\r\n   }\r\n}\r\n",
  "sourcePath": "/C/Project/Ethereum-master/contracts/Property.sol",
  "schemaVersion": "1.0.0",
  "updatedAt": "2017-10-17T02:12:55.352Z"
}